:100000009DC0C4C1B4C0B3C022C3B1C0B0C0AFC0F2
:10001000AEC0ADC0ACC0ABC0AAC0A9C0A8C0A7C08C
:10002000A6C0A5C0A4C0040309040E0363006500B4
:1000300065006D006F007300100356004600440019
:10004000740065007800740012011001FF000008C0
:10005000C016DC05000101020001090212000101C5
:100060000080320904000000000000007573625631
:1000700046443A2046563635316700000040104865
:1000800000504B548E00000000400020048010E01F
:100090001F400B00100003000420103CF008200C4F
:1000A000C30CA3182314A314E30C211CE31CA3000A
:1000B00005001200840083009024041CE61C634C9D
:1000C000A914C04CA814C2144214E9186344880847
:1000D000A0304610C0B86098641CE01C431CE41CAF
:1000E000471486440818E030501874A014A008245F
:1000F0009014C080040CA004000080800000C61092
:10010000C600C308B100D2200B00A910632008006C
:10011000A0400D1040006B006300E3005200E700B8
:10012000420085000B00E000240074001700A400CA
:1001300092400A400840090003FFFF0011241FBE3F
:10014000CFEDCDBF10E0A0E6B0E0E8EEF7E002C0F2
:1001500005900D92A236B107D9F710E0A2E6B0E003
:1001600001C01D92A23AB107E1F714D33BC348CFB7
:100170001F93CF93DF9380917500835087FD88C0D4
:1001800090917200209171002D3209F07FC088306B
:1001900009F07CC0CCE0D0E0C91BD109C758DF4FC3
:1001A00083EC809365008AE5809360001092620082
:1001B0008881807619F0CE01BBD25FC09A811092FF
:1001C0006E008981882331F410926F002EE630E0B2
:1001D00082E04FC0853019F49093760040C086309D
:1001E000A9F58B81813019F488E490E004C0823055
:1001F00041F48AE590E0909374008093730082E16B
:1002000021C08330F1F4992341F486E290E0909389
:1002100074008093730084E015C0913041F48AE249
:1002200090E090937400809373008EE00BC0923046
:1002300041F488E390E0909374008093730080E130
:1002400001C080E090E49093620017C0883059F0BC
:10025000893019F49093780002C08A3039F02EE684
:1002600030E080E006C028E730E002C02EE630E053
:1002700081E030937400209373009F81992321F4CF
:100280009E81981708F4892F809361001092750061
:100290008091600084FF4CC0809161008F3F09F421
:1002A00047C0182F893008F018E0811B8093610047
:1002B0008091650098E8892780936500112361F19A
:1002C000809173009091740030916200212F215031
:1002D00036FF0EC030E0A90149595F4FFC01A6E688
:1002E000B0E064916D933196A417B507D1F70CC0B7
:1002F000DC0130E0A90149595F4FE6E6F0E06D917D
:100300006193E417F507D9F72F5F3F4F280F391F87
:10031000309374002093730086E690E0612F32D012
:100320001C5F1C3019F08FEF809361001093600008
:1003300084E190B3957031F48150D9F71092760032
:1003400010927000DF91CF911F91089585B7826060
:1003500085BF8BB780648BBF0895A82FB92F80E02D
:1003600090E041E050EA609530E009C02D9182278D
:100370009795879510F084279527305EC8F36F5FB7
:10038000A8F30895EADF8D939D930895CF93CFB797
:10039000CF93C395809BE9F7809B09C0809B07C0E2
:1003A000809B05C0809B03C0809B01C0A1C0DF93E0
:1003B000C0917200DD27C758DF4F809B02C0DF91DC
:1003C000EBCF2F930F931F9300B32FEF00FB20F978
:1003D0004F933F9310B34FEF012700FB21F93BE010
:1003E00031C04E7F012F10B3216028C0102F4D7FE8
:1003F0002260000000B329C04B7F2460012F000061
:1004000010B32BC010B3477F28602AC04F7E00B3C3
:1004100020612CC04F7D10B320622FC04F7B00B3F2
:10042000206432C0422700B349934FEF00001027E9
:1004300010FB20F910B31570C9F1297F91F2012743
:1004400000FB21F900B3237F89F2315058F11027C6
:1004500010FB22F910B3277E79F2012700FB23F964
:100460002F7C81F200B3102710FB24F92F7971F251
:1004700000C010B3012700FB25F92F7359F200C00B
:1004800000B3102710FB26F9223040F200C010B351
:10049000012700FB27F9243028F64F77206810B396
:1004A0000000F9CF10E41ABF002717C03B50319568
:1004B000C31BD04010E41ABF0881033CE9F00B34A1
:1004C000D9F0209170001981110F1213EDCF093668
:1004D00041F10D3211F0013E39F7009377003F9161
:1004E0004F911F910F912F91DF91CAB7C6FD51CF48
:1004F000CF91CFBFCF91189520917700222379F328
:1005000010917500112311F5343012F130937500FC
:1005100020937100109172003BE0311B3093720008
:1005200017C00091750001308CF40AE5309160002D
:1005300034FD10C000936000C5E6D0E00FC02795E1
:10054000A8F45150A9F4220F0000F9CF4AE503C0E6
:1005500042ED01C0432FC4E1D0E032E011B3156099
:10056000909A11BB02B320E415E05F93012756E097
:1005700002BB279520F4515021F4220FF9CF012717
:1005800056E000003B5A02BBD0F2279528F45150A8
:1005900029F4220F0000F9CF012756E0279502BB6E
:1005A00020F4515021F4220FF9CF012756E0299170
:1005B000332302BB21F60A7F10917600110FC6513A
:1005C000D04002BB11F01093700010E41ABF01601C
:1005D00011B31A7F402F4A7F5F9100C000C002BB59
:1005E00011BB42BB7CCF80E090E0FC01E459FF4F9F
:1005F000E491DC01A157BF4FEC930196EE23A9F7DC
:1006000084E08093A10008958A3021F49091A100A4
:1006100080E0089520919F003091A000E82FFF27EF
:10062000E7FDF095E20FF31FE157FF4FE081EE2366
:1006300029F41092A00010929F00E0E2F0E0EE0F8B
:10064000FF1FE55CFF4F25913491C90108951F926A
:100650000F920FB60F9211248F939F9380919F005A
:100660009091A00001969093A00080939F009F918D
:100670008F910F900FBE0F901F90189588E381BB4C
:1006800012BA84E187BB18BA1FBC8DE08EBD82E52B
:100690009EE09BBD8ABD80E489BF0895882311F048
:1006A000939801C0939A84E1982F9A95F1F79598C1
:1006B0008A95F1F7959A0895949884E18A95F1F7CF
:1006C000949A0895EF92FF920F931F93CF93DF9325
:1006D000F82E8B0180E0E2DF80E0E0DF80E0DEDF0B
:1006E00090E1E92EC0E0D0E89E01202331232115BE
:1006F000310511F081E001C080E0D0DFEA9419F00B
:10070000D695C795F1CF80E0C9DF80E0C7DF0AE06A
:100710000F1511F481E001C080E0C0DF0150C0F787
:10072000CBDFDF91CF911F910F91FF90EF90089554
:10073000FC018181813061F4109264008681809394
:100740006300813138F080E1809363008FEF08957A
:1007500080E008958FEF089520916300261708F434
:10076000622F261B2093630030916400DC0180E03F
:1007700008C0E82FE30FF0E09D91E157FF4F908311
:100780008F5F8617B0F3630F6093640081E02111DF
:1007900080E008950F931F93CF93DF93F8946EDF5B
:1007A00022DFD4DD889A40E028EB3BE003C0C9019A
:1007B0000197F1F74150D9F788987894C0E0D0E0DC
:1007C00008EB1BE08C2F20DFBC018C2F7BDFD0DC03
:1007D000C8010197F1F72196CB30D1059CF3C0E019
:0807E000D0E0F0CFF894FFCF48
:0207E8005AFFB6
:00000001FF
