:1000000095C0D8C1ACC0ABC0AAC0A9C0A8C0A7C089
:10001000A6C0A5C0A4C0A3C0A2C0A1C0A0C09FC0CC
:100020009EC09DC09CC0040309040E0363006500CC
:1000300065006D006F007300080356004600440021
:1000400012011001FF000008C016DC0500010102CA
:1000500000010902120001010080320904000000C1
:100060000000000046563635316700000040104859
:1000700000504B548E00000000400020048010E02F
:100080001F400B00100003000420103CF008200C5F
:10009000C30CA3182314A314E30C211CE31CA3001A
:1000A00005001200840083009024041CE61C634CAD
:1000B000A914C04CA814C2144214E9186344880857
:1000C000A0304610C0B86098641CE01C431CE41CBF
:1000D000471486440818E030501874A014A008246F
:1000E0009014C080040CA004000080800000C610A2
:1000F000C600C308B100D2200B00A910632008007D
:10010000A0400D1040006B006300E3005200E700C8
:10011000420085000B00E000240074001700A400DA
:1001200092400A400840090003FFFF0011241FBE4F
:10013000CFEDCDBF10E0A0E6B0E0EEEFF7E002C0FB
:1001400005900D92A236B107D9F710E0A2E6B0E013
:1001500001C01D92A03AB107E1F728D34EC350CF9A
:100160001F93CF93DF9360917400635067FDA4C029
:1001700080917100CCE0D0E0C81BD109C858DF4F96
:10018000809170008D3209F085C0683009F092C00E
:1001900083EC809364008AE5809360001092620093
:1001A0008881807631F0CE01BBD28F3F09F461C0E7
:1001B00067C09A8110926D008981882331F4109272
:1001C0006E002DE630E082E04FC0853019F4909348
:1001D000750040C08630A9F58B81813019F480E428
:1001E00090E004C0823041F482E590E09093730087
:1001F0008093720082E121C08330F1F4992341F4AD
:1002000086E290E0909373008093720084E015C0C2
:10021000913041F48AE290E09093730080937200F1
:100220008EE00BC0923041F488E390E0909373002D
:100230008093720088E001C080E090E490936200B7
:100240001FC0883059F0893019F49093770002C0AC
:100250008A3039F02DE630E080E006C027E730E054
:1002600002C02DE630E081E03093730020937200ED
:1002700007C0988197FD8E8190E89093620007C037
:100280009F81992321F49E81981708F4892F8093E8
:10029000610010C08091620087FF0CC0CE015ED269
:1002A0008F3F21F48EE18093600004C0882311F019
:1002B00010926100109274008091600084FF4CC025
:1002C000809161008F3F09F447C0182F893008F0F2
:1002D00018E0811B809361008091640098E8892771
:1002E00080936400112361F18091720090917300FA
:1002F00030916200212F215036FF0EC030E0A9015D
:100300004A595F4FFC01A5E6B0E064916D933196C8
:10031000A417B507D1F70CC0DC0130E0A9014A5998
:100320005F4FE5E6F0E06D916193E417F507D9F7CB
:100330002F5F3F4F280F391F3093730020937200B7
:1003400085E690E0612F32D01C5F1C3019F08FEFF2
:10035000809361001093600084E190B3957031F454
:100360008150D9F71092750010926F00DF91CF91F4
:100370001F91089585B7826085BF8BB780648BBF5E
:100380000895A82FB92F80E090E041E050EA6095F1
:1003900030E009C02D9182279795879510F084272A
:1003A0009527305EC8F36F5FA8F30895EADF8D9359
:1003B0009D930895CF93CFB7CF93C395809BE9F7D3
:1003C000809B09C0809B07C0809B05C0809B03C0A9
:1003D000809B01C0A1C0DF93C0917100DD27C85888
:1003E000DF4F809B02C0DF91EBCF2F930F931F93C2
:1003F00000B32FEF00FB20F94F933F9310B34FEF63
:10040000012700FB21F93BE031C04E7F012F10B3E3
:10041000216028C0102F4D7F2260000000B329C04A
:100420004B7F2460012F000010B32BC010B3477F17
:1004300028602AC04F7E00B320612CC04F7D10B3CE
:1004400020622FC04F7B00B3206432C0422700B32C
:1004500049934FEF0000102710FB20F910B31570DF
:10046000C9F1297F91F2012700FB21F900B3237F15
:1004700089F2315058F1102710FB22F910B3277E72
:1004800079F2012700FB23F92F7C81F200B31027BA
:1004900010FB24F92F7971F200C010B3012700FB83
:1004A00025F92F7359F200C000B3102710FB26F96D
:1004B000223040F200C010B3012700FB27F924309E
:1004C00028F64F77206810B30000F9CF10E41ABF68
:1004D000002717C03B503195C31BD04010E41ABF12
:1004E0000881033CE9F00B34D9F020916F001981A9
:1004F000110F1213EDCF093641F10D3211F0013E0B
:1005000039F7009376003F914F911F910F912F91F2
:10051000DF91CAB7C6FD51CFCF91CFBFCF9118950C
:1005200020917600222379F310917400112311F5A4
:10053000343012F1309374002093700010917100E8
:100540003BE0311B3093710017C000917400013003
:100550008CF40AE53091600034FD10C00093600017
:10056000C4E6D0E00FC02795A8F45150A9F4220F9B
:100570000000F9CF4AE503C042ED01C0432FC4E1BA
:10058000D0E032E011B31560909A11BB02B320E4C1
:1005900015E05F93012756E002BB279520F45150E8
:1005A00021F4220FF9CF012756E000003B5A02BB8D
:1005B000D0F2279528F4515029F4220F0000F9CFEA
:1005C000012756E0279502BB20F4515021F4220F59
:1005D000F9CF012756E02991332302BB21F60A7F88
:1005E00010917500110FC651D04002BB11F010934D
:1005F0006F0010E41ABF016011B31A7F402F4A7FC9
:100600005F9100C000C002BB11BB42BB7CCF80E049
:1006100090E0FC01EC59FF4FE491DC01A257BF4F81
:10062000EC930196EE23A9F784E080939F00089550
:1006300010929E00089590919E00EEE8F0E0E90F80
:10064000F11D80839F5F90939E0008958A3021F46E
:1006500090919F0080E00895E82FFF27E7FDF09537
:10066000E257FF4FE081EE2309F4E0E2F0E0EE0F05
:10067000FF1FE55DFF4F25913491C901089588E37F
:1006800081BB12BA84E187BB18BA0895882311F0A0
:10069000939801C0939A84E1982F9A95F1F79598D1
:1006A0008A95F1F7959A0895949884E18A95F1F7DF
:1006B000949A0895EF92FF920F931F93CF93DF9335
:1006C000F82E8B0180E0E2DF80E0E0DF80E0DEDF1B
:1006D00090E1E92EC0E0D0E89E01202331232115CE
:1006E000310511F081E001C080E0D0DFEA9419F01B
:1006F000D695C795F1CF80E0C9DF80E0C7DF0AE07B
:100700000F1511F481E001C080E0C0DF0150C0F797
:10071000CBDFDF91CF911F910F91FF90EF90089564
:10072000EF92FF92CF93DF93E82EE7017E01F92E3F
:10073000E7018981813051F47BDF8E8180936300F2
:10074000813130F080E18093630002C080E001C01D
:100750008FEFDF91CF91FF90EF900895EF92FF928E
:100760000F931F93CF93DF93182F80916300062F71
:10077000861708F4082F801B80936300E12EE701A1
:100780007E01F92EE70102C0899155DFAE01411BC0
:100790004017D0F381E090916300911180E0DF91E8
:1007A000CF911F910F91FF90EF9008950F931F939A
:1007B000CF93DF9364DF2BDFDDDD889A40E028EB09
:1007C0003BE003C0C9010197F1F74150D9F7889880
:1007D0007894C0E0D0E008EB1BE08C2F37DFBC0141
:1007E0008C2F68DFBDDCC8010197F1F72196CB3073
:0E07F000D1059CF3C0E0D0E0F0CFF894FFCF2D
:0207FE005AFFA0
:00000001FF
